{
    "_format": "hh-sol-artifact-1",
    "contractName": "Collection",
    "sourceName": "contracts/Collection.sol",
    "abi": [
        {
            "inputs": [],
            "stateMutability": "nonpayable",
            "type": "constructor"
        },
        {
            "anonymous": false,
            "inputs": [
                {
                    "indexed": true,
                    "internalType": "address",
                    "name": "owner",
                    "type": "address"
                },
                {
                    "indexed": true,
                    "internalType": "address",
                    "name": "approved",
                    "type": "address"
                },
                {
                    "indexed": true,
                    "internalType": "uint256",
                    "name": "tokenId",
                    "type": "uint256"
                }
            ],
            "name": "Approval",
            "type": "event"
        },
        {
            "anonymous": false,
            "inputs": [
                {
                    "indexed": true,
                    "internalType": "address",
                    "name": "owner",
                    "type": "address"
                },
                {
                    "indexed": true,
                    "internalType": "address",
                    "name": "operator",
                    "type": "address"
                },
                {
                    "indexed": false,
                    "internalType": "bool",
                    "name": "approved",
                    "type": "bool"
                }
            ],
            "name": "ApprovalForAll",
            "type": "event"
        },
        {
            "anonymous": false,
            "inputs": [
                {
                    "indexed": true,
                    "internalType": "address",
                    "name": "previousOwner",
                    "type": "address"
                },
                {
                    "indexed": true,
                    "internalType": "address",
                    "name": "newOwner",
                    "type": "address"
                }
            ],
            "name": "OwnershipTransferred",
            "type": "event"
        },
        {
            "anonymous": false,
            "inputs": [
                {
                    "indexed": true,
                    "internalType": "address",
                    "name": "from",
                    "type": "address"
                },
                {
                    "indexed": true,
                    "internalType": "address",
                    "name": "to",
                    "type": "address"
                },
                {
                    "indexed": true,
                    "internalType": "uint256",
                    "name": "tokenId",
                    "type": "uint256"
                }
            ],
            "name": "Transfer",
            "type": "event"
        },
        {
            "inputs": [],
            "name": "LIMIT_PER_ADDRESS",
            "outputs": [
                {
                    "internalType": "uint256",
                    "name": "",
                    "type": "uint256"
                }
            ],
            "stateMutability": "view",
            "type": "function"
        },
        {
            "inputs": [],
            "name": "MAX_SUPPLY",
            "outputs": [
                {
                    "internalType": "uint256",
                    "name": "",
                    "type": "uint256"
                }
            ],
            "stateMutability": "view",
            "type": "function"
        },
        {
            "inputs": [],
            "name": "PRICE_PER_TOKEN",
            "outputs": [
                {
                    "internalType": "uint256",
                    "name": "",
                    "type": "uint256"
                }
            ],
            "stateMutability": "view",
            "type": "function"
        },
        {
            "inputs": [
                {
                    "internalType": "address",
                    "name": "to",
                    "type": "address"
                },
                {
                    "internalType": "uint256",
                    "name": "tokenId",
                    "type": "uint256"
                }
            ],
            "name": "approve",
            "outputs": [],
            "stateMutability": "nonpayable",
            "type": "function"
        },
        {
            "inputs": [
                {
                    "internalType": "address",
                    "name": "owner",
                    "type": "address"
                }
            ],
            "name": "balanceOf",
            "outputs": [
                {
                    "internalType": "uint256",
                    "name": "",
                    "type": "uint256"
                }
            ],
            "stateMutability": "view",
            "type": "function"
        },
        {
            "inputs": [
                {
                    "internalType": "uint256",
                    "name": "tokenId",
                    "type": "uint256"
                }
            ],
            "name": "getApproved",
            "outputs": [
                {
                    "internalType": "address",
                    "name": "",
                    "type": "address"
                }
            ],
            "stateMutability": "view",
            "type": "function"
        },
        {
            "inputs": [
                {
                    "internalType": "address",
                    "name": "owner",
                    "type": "address"
                },
                {
                    "internalType": "address",
                    "name": "operator",
                    "type": "address"
                }
            ],
            "name": "isApprovedForAll",
            "outputs": [
                {
                    "internalType": "bool",
                    "name": "",
                    "type": "bool"
                }
            ],
            "stateMutability": "view",
            "type": "function"
        },
        {
            "inputs": [
                {
                    "internalType": "string",
                    "name": "tokenURI",
                    "type": "string"
                }
            ],
            "name": "mintNFT",
            "outputs": [
                {
                    "internalType": "uint256",
                    "name": "",
                    "type": "uint256"
                }
            ],
            "stateMutability": "payable",
            "type": "function"
        },
        {
            "inputs": [],
            "name": "name",
            "outputs": [
                {
                    "internalType": "string",
                    "name": "",
                    "type": "string"
                }
            ],
            "stateMutability": "view",
            "type": "function"
        },
        {
            "inputs": [],
            "name": "owner",
            "outputs": [
                {
                    "internalType": "address",
                    "name": "",
                    "type": "address"
                }
            ],
            "stateMutability": "view",
            "type": "function"
        },
        {
            "inputs": [
                {
                    "internalType": "uint256",
                    "name": "tokenId",
                    "type": "uint256"
                }
            ],
            "name": "ownerOf",
            "outputs": [
                {
                    "internalType": "address",
                    "name": "",
                    "type": "address"
                }
            ],
            "stateMutability": "view",
            "type": "function"
        },
        {
            "inputs": [],
            "name": "renounceOwnership",
            "outputs": [],
            "stateMutability": "nonpayable",
            "type": "function"
        },
        {
            "inputs": [
                {
                    "internalType": "address",
                    "name": "from",
                    "type": "address"
                },
                {
                    "internalType": "address",
                    "name": "to",
                    "type": "address"
                },
                {
                    "internalType": "uint256",
                    "name": "tokenId",
                    "type": "uint256"
                }
            ],
            "name": "safeTransferFrom",
            "outputs": [],
            "stateMutability": "nonpayable",
            "type": "function"
        },
        {
            "inputs": [
                {
                    "internalType": "address",
                    "name": "from",
                    "type": "address"
                },
                {
                    "internalType": "address",
                    "name": "to",
                    "type": "address"
                },
                {
                    "internalType": "uint256",
                    "name": "tokenId",
                    "type": "uint256"
                },
                {
                    "internalType": "bytes",
                    "name": "data",
                    "type": "bytes"
                }
            ],
            "name": "safeTransferFrom",
            "outputs": [],
            "stateMutability": "nonpayable",
            "type": "function"
        },
        {
            "inputs": [
                {
                    "internalType": "address",
                    "name": "operator",
                    "type": "address"
                },
                {
                    "internalType": "bool",
                    "name": "approved",
                    "type": "bool"
                }
            ],
            "name": "setApprovalForAll",
            "outputs": [],
            "stateMutability": "nonpayable",
            "type": "function"
        },
        {
            "inputs": [
                {
                    "internalType": "uint256",
                    "name": "limit",
                    "type": "uint256"
                }
            ],
            "name": "setLimit",
            "outputs": [],
            "stateMutability": "nonpayable",
            "type": "function"
        },
        {
            "inputs": [
                {
                    "internalType": "uint256",
                    "name": "max_supply",
                    "type": "uint256"
                }
            ],
            "name": "setMaxSupply",
            "outputs": [],
            "stateMutability": "nonpayable",
            "type": "function"
        },
        {
            "inputs": [
                {
                    "internalType": "uint256",
                    "name": "price",
                    "type": "uint256"
                }
            ],
            "name": "setPrice",
            "outputs": [],
            "stateMutability": "nonpayable",
            "type": "function"
        },
        {
            "inputs": [
                {
                    "internalType": "bytes4",
                    "name": "interfaceId",
                    "type": "bytes4"
                }
            ],
            "name": "supportsInterface",
            "outputs": [
                {
                    "internalType": "bool",
                    "name": "",
                    "type": "bool"
                }
            ],
            "stateMutability": "view",
            "type": "function"
        },
        {
            "inputs": [],
            "name": "symbol",
            "outputs": [
                {
                    "internalType": "string",
                    "name": "",
                    "type": "string"
                }
            ],
            "stateMutability": "view",
            "type": "function"
        },
        {
            "inputs": [
                {
                    "internalType": "uint256",
                    "name": "tokenId",
                    "type": "uint256"
                }
            ],
            "name": "tokenURI",
            "outputs": [
                {
                    "internalType": "string",
                    "name": "",
                    "type": "string"
                }
            ],
            "stateMutability": "view",
            "type": "function"
        },
        {
            "inputs": [
                {
                    "internalType": "address",
                    "name": "from",
                    "type": "address"
                },
                {
                    "internalType": "address",
                    "name": "to",
                    "type": "address"
                },
                {
                    "internalType": "uint256",
                    "name": "tokenId",
                    "type": "uint256"
                }
            ],
            "name": "transferFrom",
            "outputs": [],
            "stateMutability": "nonpayable",
            "type": "function"
        },
        {
            "inputs": [
                {
                    "internalType": "address",
                    "name": "newOwner",
                    "type": "address"
                }
            ],
            "name": "transferOwnership",
            "outputs": [],
            "stateMutability": "nonpayable",
            "type": "function"
        },
        {
            "inputs": [],
            "name": "withdrawMoney",
            "outputs": [],
            "stateMutability": "nonpayable",
            "type": "function"
        }
    ],
    "bytecode": "0x6080604052662386f26fc10000600c556002600d556005600e553480156200002657600080fd5b506040518060400160405280600a81526020017f436f6c6c656374696f6e000000000000000000000000000000000000000000008152506040518060400160405280600381526020017f4e465400000000000000000000000000000000000000000000000000000000008152508160009081620000a4919062000427565b508060019081620000b6919062000427565b505050620000d9620000cd620000df60201b60201c565b620000e760201b60201c565b6200050e565b600033905090565b6000600760009054906101000a900473ffffffffffffffffffffffffffffffffffffffff16905081600760006101000a81548173ffffffffffffffffffffffffffffffffffffffff021916908373ffffffffffffffffffffffffffffffffffffffff1602179055508173ffffffffffffffffffffffffffffffffffffffff168173ffffffffffffffffffffffffffffffffffffffff167f8be0079c531659141344cd1fd0a4f28419497f9722a3daafe3b4186f6b6457e060405160405180910390a35050565b600081519050919050565b7f4e487b7100000000000000000000000000000000000000000000000000000000600052604160045260246000fd5b7f4e487b7100000000000000000000000000000000000000000000000000000000600052602260045260246000fd5b600060028204905060018216806200022f57607f821691505b602082108103620002455762000244620001e7565b5b50919050565b60008190508160005260206000209050919050565b60006020601f8301049050919050565b600082821b905092915050565b600060088302620002af7fffffffffffffffffffffffffffffffffffffffffffffffffffffffffffffffff8262000270565b620002bb868362000270565b95508019841693508086168417925050509392505050565b6000819050919050565b6000819050919050565b60006200030862000302620002fc84620002d3565b620002dd565b620002d3565b9050919050565b6000819050919050565b6200032483620002e7565b6200033c62000333826200030f565b8484546200027d565b825550505050565b600090565b6200035362000344565b6200036081848462000319565b505050565b5b8181101562000388576200037c60008262000349565b60018101905062000366565b5050565b601f821115620003d757620003a1816200024b565b620003ac8462000260565b81016020851015620003bc578190505b620003d4620003cb8562000260565b83018262000365565b50505b505050565b600082821c905092915050565b6000620003fc60001984600802620003dc565b1980831691505092915050565b6000620004178383620003e9565b9150826002028217905092915050565b6200043282620001ad565b67ffffffffffffffff8111156200044e576200044d620001b8565b5b6200045a825462000216565b620004678282856200038c565b600060209050601f8311600181146200049f57600084156200048a578287015190505b62000496858262000409565b86555062000506565b601f198416620004af866200024b565b60005b82811015620004d957848901518255600182019150602085019450602081019050620004b2565b86831015620004f95784890151620004f5601f891682620003e9565b8355505b6001600288020188555050505b505050505050565b61353e806200051e6000396000f3fe60806040526004361061014b5760003560e01c8063715018a6116100b6578063ac4460021161006f578063ac4460021461047c578063b88d4fde14610493578063c87b56dd146104bc578063e985e9c5146104f9578063f2fde38b14610536578063fb37e8831461055f5761014b565b8063715018a614610392578063833b9499146103a95780638da5cb5b146103d457806391b7f5ed146103ff57806395d89b4114610428578063a22cb465146104535761014b565b806332cb6b0c1161010857806332cb6b0c14610270578063417bac1a1461029b57806342842e0e146102c65780636352211e146102ef5780636f8b44b01461032c57806370a08231146103555761014b565b806301ffc9a71461015057806306fdde031461018d578063081812fc146101b8578063095ea7b3146101f557806323b872dd1461021e57806327ea6f2b14610247575b600080fd5b34801561015c57600080fd5b50610177600480360381019061017291906120d6565b61058f565b604051610184919061211e565b60405180910390f35b34801561019957600080fd5b506101a2610671565b6040516101af91906121c9565b60405180910390f35b3480156101c457600080fd5b506101df60048036038101906101da9190612221565b610703565b6040516101ec919061228f565b60405180910390f35b34801561020157600080fd5b5061021c600480360381019061021791906122d6565b610749565b005b34801561022a57600080fd5b5061024560048036038101906102409190612316565b610860565b005b34801561025357600080fd5b5061026e60048036038101906102699190612221565b6108c0565b005b34801561027c57600080fd5b506102856108d2565b6040516102929190612378565b60405180910390f35b3480156102a757600080fd5b506102b06108d8565b6040516102bd9190612378565b60405180910390f35b3480156102d257600080fd5b506102ed60048036038101906102e89190612316565b6108de565b005b3480156102fb57600080fd5b5061031660048036038101906103119190612221565b6108fe565b604051610323919061228f565b60405180910390f35b34801561033857600080fd5b50610353600480360381019061034e9190612221565b610984565b005b34801561036157600080fd5b5061037c60048036038101906103779190612393565b610996565b6040516103899190612378565b60405180910390f35b34801561039e57600080fd5b506103a7610a4d565b005b3480156103b557600080fd5b506103be610a61565b6040516103cb9190612378565b60405180910390f35b3480156103e057600080fd5b506103e9610a67565b6040516103f6919061228f565b60405180910390f35b34801561040b57600080fd5b5061042660048036038101906104219190612221565b610a91565b005b34801561043457600080fd5b5061043d610aa3565b60405161044a91906121c9565b60405180910390f35b34801561045f57600080fd5b5061047a600480360381019061047591906123ec565b610b35565b005b34801561048857600080fd5b50610491610b4b565b005b34801561049f57600080fd5b506104ba60048036038101906104b59190612561565b610ba2565b005b3480156104c857600080fd5b506104e360048036038101906104de9190612221565b610c04565b6040516104f091906121c9565b60405180910390f35b34801561050557600080fd5b50610520600480360381019061051b91906125e4565b610d16565b60405161052d919061211e565b60405180910390f35b34801561054257600080fd5b5061055d60048036038101906105589190612393565b610daa565b005b610579600480360381019061057491906126c5565b610e2d565b6040516105869190612378565b60405180910390f35b60007f80ac58cd000000000000000000000000000000000000000000000000000000007bffffffffffffffffffffffffffffffffffffffffffffffffffffffff1916827bffffffffffffffffffffffffffffffffffffffffffffffffffffffff1916148061065a57507f5b5e139f000000000000000000000000000000000000000000000000000000007bffffffffffffffffffffffffffffffffffffffffffffffffffffffff1916827bffffffffffffffffffffffffffffffffffffffffffffffffffffffff1916145b8061066a5750610669826110d8565b5b9050919050565b6060600080546106809061273d565b80601f01602080910402602001604051908101604052809291908181526020018280546106ac9061273d565b80156106f95780601f106106ce576101008083540402835291602001916106f9565b820191906000526020600020905b8154815290600101906020018083116106dc57829003601f168201915b5050505050905090565b600061070e82611142565b6004600083815260200190815260200160002060009054906101000a900473ffffffffffffffffffffffffffffffffffffffff169050919050565b6000610754826108fe565b90508073ffffffffffffffffffffffffffffffffffffffff168373ffffffffffffffffffffffffffffffffffffffff16036107c4576040517f08c379a00000000000000000000000000000000000000000000000000000000081526004016107bb906127e0565b60405180910390fd5b8073ffffffffffffffffffffffffffffffffffffffff166107e361118d565b73ffffffffffffffffffffffffffffffffffffffff16148061081257506108118161080c61118d565b610d16565b5b610851576040517f08c379a000000000000000000000000000000000000000000000000000000000815260040161084890612872565b60405180910390fd5b61085b8383611195565b505050565b61087161086b61118d565b8261124e565b6108b0576040517f08c379a00000000000000000000000000000000000000000000000000000000081526004016108a790612904565b60405180910390fd5b6108bb8383836112e3565b505050565b6108c86115dc565b80600d8190555050565b600e5481565b600d5481565b6108f983838360405180602001604052806000815250610ba2565b505050565b60008061090a8361165a565b9050600073ffffffffffffffffffffffffffffffffffffffff168173ffffffffffffffffffffffffffffffffffffffff160361097b576040517f08c379a000000000000000000000000000000000000000000000000000000000815260040161097290612970565b60405180910390fd5b80915050919050565b61098c6115dc565b80600e8190555050565b60008073ffffffffffffffffffffffffffffffffffffffff168273ffffffffffffffffffffffffffffffffffffffff1603610a06576040517f08c379a00000000000000000000000000000000000000000000000000000000081526004016109fd90612a02565b60405180910390fd5b600360008373ffffffffffffffffffffffffffffffffffffffff1673ffffffffffffffffffffffffffffffffffffffff168152602001908152602001600020549050919050565b610a556115dc565b610a5f6000611697565b565b600c5481565b6000600760009054906101000a900473ffffffffffffffffffffffffffffffffffffffff16905090565b610a996115dc565b80600c8190555050565b606060018054610ab29061273d565b80601f0160208091040260200160405190810160405280929190818152602001828054610ade9061273d565b8015610b2b5780601f10610b0057610100808354040283529160200191610b2b565b820191906000526020600020905b815481529060010190602001808311610b0e57829003601f168201915b5050505050905090565b610b47610b4061118d565b838361175d565b5050565b610b536115dc565b60003390508073ffffffffffffffffffffffffffffffffffffffff166108fc479081150290604051600060405180830381858888f19350505050158015610b9e573d6000803e3d6000fd5b5050565b610bb3610bad61118d565b8361124e565b610bf2576040517f08c379a0000000000000000000000000000000000000000000000000000000008152600401610be990612904565b60405180910390fd5b610bfe848484846118c9565b50505050565b6060610c0f82611142565b6000600660008481526020019081526020016000208054610c2f9061273d565b80601f0160208091040260200160405190810160405280929190818152602001828054610c5b9061273d565b8015610ca85780601f10610c7d57610100808354040283529160200191610ca8565b820191906000526020600020905b815481529060010190602001808311610c8b57829003601f168201915b505050505090506000610cb9611925565b90506000815103610cce578192505050610d11565b600082511115610d03578082604051602001610ceb929190612a5e565b60405160208183030381529060405292505050610d11565b610d0c8461193c565b925050505b919050565b6000600560008473ffffffffffffffffffffffffffffffffffffffff1673ffffffffffffffffffffffffffffffffffffffff16815260200190815260200160002060008373ffffffffffffffffffffffffffffffffffffffff1673ffffffffffffffffffffffffffffffffffffffff16815260200190815260200160002060009054906101000a900460ff16905092915050565b610db26115dc565b600073ffffffffffffffffffffffffffffffffffffffff168173ffffffffffffffffffffffffffffffffffffffff1603610e21576040517f08c379a0000000000000000000000000000000000000000000000000000000008152600401610e1890612af4565b60405180910390fd5b610e2a81611697565b50565b600034600c541115610e74576040517f08c379a0000000000000000000000000000000000000000000000000000000008152600401610e6b90612b60565b60405180910390fd5b600d54600a60003373ffffffffffffffffffffffffffffffffffffffff1673ffffffffffffffffffffffffffffffffffffffff16815260200190815260200160002060009054906101000a900460ff1660ff1610610f07576040517f08c379a0000000000000000000000000000000000000000000000000000000008152600401610efe90612bcc565b60405180910390fd5b600e546001610f1660096119a4565b610f209190612c1b565b1115610f61576040517f08c379a0000000000000000000000000000000000000000000000000000000008152600401610f5890612c9b565b60405180910390fd5b6000600b83604051610f739190612cbb565b908152602001604051809103902060009054906101000a900460ff1660ff1614610fd2576040517f08c379a0000000000000000000000000000000000000000000000000000000008152600401610fc990612d1e565b60405180910390fd5b6001600b83604051610fe49190612cbb565b908152602001604051809103902060008282829054906101000a900460ff1661100d9190612d4b565b92506101000a81548160ff021916908360ff1602179055506001600a60003373ffffffffffffffffffffffffffffffffffffffff1673ffffffffffffffffffffffffffffffffffffffff16815260200190815260200160002060008282829054906101000a900460ff166110819190612d4b565b92506101000a81548160ff021916908360ff1602179055506110a360086119b2565b6110ad60096119b2565b60006110b960086119a4565b90506110c533826119c8565b6110cf8184611be5565b80915050919050565b60007f01ffc9a7000000000000000000000000000000000000000000000000000000007bffffffffffffffffffffffffffffffffffffffffffffffffffffffff1916827bffffffffffffffffffffffffffffffffffffffffffffffffffffffff1916149050919050565b61114b81611c52565b61118a576040517f08c379a000000000000000000000000000000000000000000000000000000000815260040161118190612970565b60405180910390fd5b50565b600033905090565b816004600083815260200190815260200160002060006101000a81548173ffffffffffffffffffffffffffffffffffffffff021916908373ffffffffffffffffffffffffffffffffffffffff160217905550808273ffffffffffffffffffffffffffffffffffffffff16611208836108fe565b73ffffffffffffffffffffffffffffffffffffffff167f8c5be1e5ebec7d5bd14f71427d1e84f3dd0314c0f7b2291e5b200ac8c7c3b92560405160405180910390a45050565b60008061125a836108fe565b90508073ffffffffffffffffffffffffffffffffffffffff168473ffffffffffffffffffffffffffffffffffffffff16148061129c575061129b8185610d16565b5b806112da57508373ffffffffffffffffffffffffffffffffffffffff166112c284610703565b73ffffffffffffffffffffffffffffffffffffffff16145b91505092915050565b8273ffffffffffffffffffffffffffffffffffffffff16611303826108fe565b73ffffffffffffffffffffffffffffffffffffffff1614611359576040517f08c379a000000000000000000000000000000000000000000000000000000000815260040161135090612df2565b60405180910390fd5b600073ffffffffffffffffffffffffffffffffffffffff168273ffffffffffffffffffffffffffffffffffffffff16036113c8576040517f08c379a00000000000000000000000000000000000000000000000000000000081526004016113bf90612e84565b60405180910390fd5b6113d58383836001611c93565b8273ffffffffffffffffffffffffffffffffffffffff166113f5826108fe565b73ffffffffffffffffffffffffffffffffffffffff161461144b576040517f08c379a000000000000000000000000000000000000000000000000000000000815260040161144290612df2565b60405180910390fd5b6004600082815260200190815260200160002060006101000a81549073ffffffffffffffffffffffffffffffffffffffff02191690556001600360008573ffffffffffffffffffffffffffffffffffffffff1673ffffffffffffffffffffffffffffffffffffffff168152602001908152602001600020600082825403925050819055506001600360008473ffffffffffffffffffffffffffffffffffffffff1673ffffffffffffffffffffffffffffffffffffffff16815260200190815260200160002060008282540192505081905550816002600083815260200190815260200160002060006101000a81548173ffffffffffffffffffffffffffffffffffffffff021916908373ffffffffffffffffffffffffffffffffffffffff160217905550808273ffffffffffffffffffffffffffffffffffffffff168473ffffffffffffffffffffffffffffffffffffffff167fddf252ad1be2c89b69c2b068fc378daa952ba7f163c4a11628f55a4df523b3ef60405160405180910390a46115d78383836001611c99565b505050565b6115e461118d565b73ffffffffffffffffffffffffffffffffffffffff16611602610a67565b73ffffffffffffffffffffffffffffffffffffffff1614611658576040517f08c379a000000000000000000000000000000000000000000000000000000000815260040161164f90612ef0565b60405180910390fd5b565b60006002600083815260200190815260200160002060009054906101000a900473ffffffffffffffffffffffffffffffffffffffff169050919050565b6000600760009054906101000a900473ffffffffffffffffffffffffffffffffffffffff16905081600760006101000a81548173ffffffffffffffffffffffffffffffffffffffff021916908373ffffffffffffffffffffffffffffffffffffffff1602179055508173ffffffffffffffffffffffffffffffffffffffff168173ffffffffffffffffffffffffffffffffffffffff167f8be0079c531659141344cd1fd0a4f28419497f9722a3daafe3b4186f6b6457e060405160405180910390a35050565b8173ffffffffffffffffffffffffffffffffffffffff168373ffffffffffffffffffffffffffffffffffffffff16036117cb576040517f08c379a00000000000000000000000000000000000000000000000000000000081526004016117c290612f5c565b60405180910390fd5b80600560008573ffffffffffffffffffffffffffffffffffffffff1673ffffffffffffffffffffffffffffffffffffffff16815260200190815260200160002060008473ffffffffffffffffffffffffffffffffffffffff1673ffffffffffffffffffffffffffffffffffffffff16815260200190815260200160002060006101000a81548160ff0219169083151502179055508173ffffffffffffffffffffffffffffffffffffffff168373ffffffffffffffffffffffffffffffffffffffff167f17307eab39ab6107e8899845ad3d59bd9653f200f220920489ca2b5937696c31836040516118bc919061211e565b60405180910390a3505050565b6118d48484846112e3565b6118e084848484611c9f565b61191f576040517f08c379a000000000000000000000000000000000000000000000000000000000815260040161191690612fee565b60405180910390fd5b50505050565b606060405180602001604052806000815250905090565b606061194782611142565b6000611951611925565b90506000815111611971576040518060200160405280600081525061199c565b8061197b84611e26565b60405160200161198c929190612a5e565b6040516020818303038152906040525b915050919050565b600081600001549050919050565b6001816000016000828254019250508190555050565b600073ffffffffffffffffffffffffffffffffffffffff168273ffffffffffffffffffffffffffffffffffffffff1603611a37576040517f08c379a0000000000000000000000000000000000000000000000000000000008152600401611a2e9061305a565b60405180910390fd5b611a4081611c52565b15611a80576040517f08c379a0000000000000000000000000000000000000000000000000000000008152600401611a77906130c6565b60405180910390fd5b611a8e600083836001611c93565b611a9781611c52565b15611ad7576040517f08c379a0000000000000000000000000000000000000000000000000000000008152600401611ace906130c6565b60405180910390fd5b6001600360008473ffffffffffffffffffffffffffffffffffffffff1673ffffffffffffffffffffffffffffffffffffffff16815260200190815260200160002060008282540192505081905550816002600083815260200190815260200160002060006101000a81548173ffffffffffffffffffffffffffffffffffffffff021916908373ffffffffffffffffffffffffffffffffffffffff160217905550808273ffffffffffffffffffffffffffffffffffffffff16600073ffffffffffffffffffffffffffffffffffffffff167fddf252ad1be2c89b69c2b068fc378daa952ba7f163c4a11628f55a4df523b3ef60405160405180910390a4611be1600083836001611c99565b5050565b611bee82611c52565b611c2d576040517f08c379a0000000000000000000000000000000000000000000000000000000008152600401611c2490613158565b60405180910390fd5b80600660008481526020019081526020016000209081611c4d9190613324565b505050565b60008073ffffffffffffffffffffffffffffffffffffffff16611c748361165a565b73ffffffffffffffffffffffffffffffffffffffff1614159050919050565b50505050565b50505050565b6000611cc08473ffffffffffffffffffffffffffffffffffffffff16611ef4565b15611e19578373ffffffffffffffffffffffffffffffffffffffff1663150b7a02611ce961118d565b8786866040518563ffffffff1660e01b8152600401611d0b949392919061344b565b6020604051808303816000875af1925050508015611d4757506040513d601f19601f82011682018060405250810190611d4491906134ac565b60015b611dc9573d8060008114611d77576040519150601f19603f3d011682016040523d82523d6000602084013e611d7c565b606091505b506000815103611dc1576040517f08c379a0000000000000000000000000000000000000000000000000000000008152600401611db890612fee565b60405180910390fd5b805181602001fd5b63150b7a0260e01b7bffffffffffffffffffffffffffffffffffffffffffffffffffffffff1916817bffffffffffffffffffffffffffffffffffffffffffffffffffffffff191614915050611e1e565b600190505b949350505050565b606060006001611e3584611f17565b01905060008167ffffffffffffffff811115611e5457611e53612436565b5b6040519080825280601f01601f191660200182016040528015611e865781602001600182028036833780820191505090505b509050600082602001820190505b600115611ee9578080600190039150507f3031323334353637383961626364656600000000000000000000000000000000600a86061a8153600a8581611edd57611edc6134d9565b5b04945060008503611e94575b819350505050919050565b6000808273ffffffffffffffffffffffffffffffffffffffff163b119050919050565b600080600090507a184f03e93ff9f4daa797ed6e38ed64bf6a1f0100000000000000008310611f75577a184f03e93ff9f4daa797ed6e38ed64bf6a1f0100000000000000008381611f6b57611f6a6134d9565b5b0492506040810190505b6d04ee2d6d415b85acef81000000008310611fb2576d04ee2d6d415b85acef81000000008381611fa857611fa76134d9565b5b0492506020810190505b662386f26fc100008310611fe157662386f26fc100008381611fd757611fd66134d9565b5b0492506010810190505b6305f5e100831061200a576305f5e100838161200057611fff6134d9565b5b0492506008810190505b612710831061202f576127108381612025576120246134d9565b5b0492506004810190505b606483106120525760648381612048576120476134d9565b5b0492506002810190505b600a8310612061576001810190505b80915050919050565b6000604051905090565b600080fd5b600080fd5b60007fffffffff0000000000000000000000000000000000000000000000000000000082169050919050565b6120b38161207e565b81146120be57600080fd5b50565b6000813590506120d0816120aa565b92915050565b6000602082840312156120ec576120eb612074565b5b60006120fa848285016120c1565b91505092915050565b60008115159050919050565b61211881612103565b82525050565b6000602082019050612133600083018461210f565b92915050565b600081519050919050565b600082825260208201905092915050565b60005b83811015612173578082015181840152602081019050612158565b60008484015250505050565b6000601f19601f8301169050919050565b600061219b82612139565b6121a58185612144565b93506121b5818560208601612155565b6121be8161217f565b840191505092915050565b600060208201905081810360008301526121e38184612190565b905092915050565b6000819050919050565b6121fe816121eb565b811461220957600080fd5b50565b60008135905061221b816121f5565b92915050565b60006020828403121561223757612236612074565b5b60006122458482850161220c565b91505092915050565b600073ffffffffffffffffffffffffffffffffffffffff82169050919050565b60006122798261224e565b9050919050565b6122898161226e565b82525050565b60006020820190506122a46000830184612280565b92915050565b6122b38161226e565b81146122be57600080fd5b50565b6000813590506122d0816122aa565b92915050565b600080604083850312156122ed576122ec612074565b5b60006122fb858286016122c1565b925050602061230c8582860161220c565b9150509250929050565b60008060006060848603121561232f5761232e612074565b5b600061233d868287016122c1565b935050602061234e868287016122c1565b925050604061235f8682870161220c565b9150509250925092565b612372816121eb565b82525050565b600060208201905061238d6000830184612369565b92915050565b6000602082840312156123a9576123a8612074565b5b60006123b7848285016122c1565b91505092915050565b6123c981612103565b81146123d457600080fd5b50565b6000813590506123e6816123c0565b92915050565b6000806040838503121561240357612402612074565b5b6000612411858286016122c1565b9250506020612422858286016123d7565b9150509250929050565b600080fd5b600080fd5b7f4e487b7100000000000000000000000000000000000000000000000000000000600052604160045260246000fd5b61246e8261217f565b810181811067ffffffffffffffff8211171561248d5761248c612436565b5b80604052505050565b60006124a061206a565b90506124ac8282612465565b919050565b600067ffffffffffffffff8211156124cc576124cb612436565b5b6124d58261217f565b9050602081019050919050565b82818337600083830152505050565b60006125046124ff846124b1565b612496565b9050828152602081018484840111156125205761251f612431565b5b61252b8482856124e2565b509392505050565b600082601f8301126125485761254761242c565b5b81356125588482602086016124f1565b91505092915050565b6000806000806080858703121561257b5761257a612074565b5b6000612589878288016122c1565b945050602061259a878288016122c1565b93505060406125ab8782880161220c565b925050606085013567ffffffffffffffff8111156125cc576125cb612079565b5b6125d887828801612533565b91505092959194509250565b600080604083850312156125fb576125fa612074565b5b6000612609858286016122c1565b925050602061261a858286016122c1565b9150509250929050565b600067ffffffffffffffff82111561263f5761263e612436565b5b6126488261217f565b9050602081019050919050565b600061266861266384612624565b612496565b90508281526020810184848401111561268457612683612431565b5b61268f8482856124e2565b509392505050565b600082601f8301126126ac576126ab61242c565b5b81356126bc848260208601612655565b91505092915050565b6000602082840312156126db576126da612074565b5b600082013567ffffffffffffffff8111156126f9576126f8612079565b5b61270584828501612697565b91505092915050565b7f4e487b7100000000000000000000000000000000000000000000000000000000600052602260045260246000fd5b6000600282049050600182168061275557607f821691505b6020821081036127685761276761270e565b5b50919050565b7f4552433732313a20617070726f76616c20746f2063757272656e74206f776e6560008201527f7200000000000000000000000000000000000000000000000000000000000000602082015250565b60006127ca602183612144565b91506127d58261276e565b604082019050919050565b600060208201905081810360008301526127f9816127bd565b9050919050565b7f4552433732313a20617070726f76652063616c6c6572206973206e6f7420746f60008201527f6b656e206f776e6572206f7220617070726f76656420666f7220616c6c000000602082015250565b600061285c603d83612144565b915061286782612800565b604082019050919050565b6000602082019050818103600083015261288b8161284f565b9050919050565b7f4552433732313a2063616c6c6572206973206e6f7420746f6b656e206f776e6560008201527f72206f7220617070726f76656400000000000000000000000000000000000000602082015250565b60006128ee602d83612144565b91506128f982612892565b604082019050919050565b6000602082019050818103600083015261291d816128e1565b9050919050565b7f4552433732313a20696e76616c696420746f6b656e2049440000000000000000600082015250565b600061295a601883612144565b915061296582612924565b602082019050919050565b600060208201905081810360008301526129898161294d565b9050919050565b7f4552433732313a2061646472657373207a65726f206973206e6f74206120766160008201527f6c6964206f776e65720000000000000000000000000000000000000000000000602082015250565b60006129ec602983612144565b91506129f782612990565b604082019050919050565b60006020820190508181036000830152612a1b816129df565b9050919050565b600081905092915050565b6000612a3882612139565b612a428185612a22565b9350612a52818560208601612155565b80840191505092915050565b6000612a6a8285612a2d565b9150612a768284612a2d565b91508190509392505050565b7f4f776e61626c653a206e6577206f776e657220697320746865207a65726f206160008201527f6464726573730000000000000000000000000000000000000000000000000000602082015250565b6000612ade602683612144565b9150612ae982612a82565b604082019050919050565b60006020820190508181036000830152612b0d81612ad1565b9050919050565b7f4574686572207061696420697320696e636f7272656374000000000000000000600082015250565b6000612b4a601783612144565b9150612b5582612b14565b602082019050919050565b60006020820190508181036000830152612b7981612b3d565b9050919050565b7f596f752068617665206578636565646564206d696e74696e67206c696d697400600082015250565b6000612bb6601f83612144565b9150612bc182612b80565b602082019050919050565b60006020820190508181036000830152612be581612ba9565b9050919050565b7f4e487b7100000000000000000000000000000000000000000000000000000000600052601160045260246000fd5b6000612c26826121eb565b9150612c31836121eb565b9250828201905080821115612c4957612c48612bec565b5b92915050565b7f596f752068617665206578636565646564204d617820537570706c7900000000600082015250565b6000612c85601c83612144565b9150612c9082612c4f565b602082019050919050565b60006020820190508181036000830152612cb481612c78565b9050919050565b6000612cc78284612a2d565b915081905092915050565b7f54686973204e46542068617320616c7265616479206265656e206d696e746564600082015250565b6000612d08602083612144565b9150612d1382612cd2565b602082019050919050565b60006020820190508181036000830152612d3781612cfb565b9050919050565b600060ff82169050919050565b6000612d5682612d3e565b9150612d6183612d3e565b9250828201905060ff811115612d7a57612d79612bec565b5b92915050565b7f4552433732313a207472616e736665722066726f6d20696e636f72726563742060008201527f6f776e6572000000000000000000000000000000000000000000000000000000602082015250565b6000612ddc602583612144565b9150612de782612d80565b604082019050919050565b60006020820190508181036000830152612e0b81612dcf565b9050919050565b7f4552433732313a207472616e7366657220746f20746865207a65726f2061646460008201527f7265737300000000000000000000000000000000000000000000000000000000602082015250565b6000612e6e602483612144565b9150612e7982612e12565b604082019050919050565b60006020820190508181036000830152612e9d81612e61565b9050919050565b7f4f776e61626c653a2063616c6c6572206973206e6f7420746865206f776e6572600082015250565b6000612eda602083612144565b9150612ee582612ea4565b602082019050919050565b60006020820190508181036000830152612f0981612ecd565b9050919050565b7f4552433732313a20617070726f766520746f2063616c6c657200000000000000600082015250565b6000612f46601983612144565b9150612f5182612f10565b602082019050919050565b60006020820190508181036000830152612f7581612f39565b9050919050565b7f4552433732313a207472616e7366657220746f206e6f6e20455243373231526560008201527f63656976657220696d706c656d656e7465720000000000000000000000000000602082015250565b6000612fd8603283612144565b9150612fe382612f7c565b604082019050919050565b6000602082019050818103600083015261300781612fcb565b9050919050565b7f4552433732313a206d696e7420746f20746865207a65726f2061646472657373600082015250565b6000613044602083612144565b915061304f8261300e565b602082019050919050565b6000602082019050818103600083015261307381613037565b9050919050565b7f4552433732313a20746f6b656e20616c7265616479206d696e74656400000000600082015250565b60006130b0601c83612144565b91506130bb8261307a565b602082019050919050565b600060208201905081810360008301526130df816130a3565b9050919050565b7f45524337323155524953746f726167653a2055524920736574206f66206e6f6e60008201527f6578697374656e7420746f6b656e000000000000000000000000000000000000602082015250565b6000613142602e83612144565b915061314d826130e6565b604082019050919050565b6000602082019050818103600083015261317181613135565b9050919050565b60008190508160005260206000209050919050565b60006020601f8301049050919050565b600082821b905092915050565b6000600883026131da7fffffffffffffffffffffffffffffffffffffffffffffffffffffffffffffffff8261319d565b6131e4868361319d565b95508019841693508086168417925050509392505050565b6000819050919050565b600061322161321c613217846121eb565b6131fc565b6121eb565b9050919050565b6000819050919050565b61323b83613206565b61324f61324782613228565b8484546131aa565b825550505050565b600090565b613264613257565b61326f818484613232565b505050565b5b818110156132935761328860008261325c565b600181019050613275565b5050565b601f8211156132d8576132a981613178565b6132b28461318d565b810160208510156132c1578190505b6132d56132cd8561318d565b830182613274565b50505b505050565b600082821c905092915050565b60006132fb600019846008026132dd565b1980831691505092915050565b600061331483836132ea565b9150826002028217905092915050565b61332d82612139565b67ffffffffffffffff81111561334657613345612436565b5b613350825461273d565b61335b828285613297565b600060209050601f83116001811461338e576000841561337c578287015190505b6133868582613308565b8655506133ee565b601f19841661339c86613178565b60005b828110156133c45784890151825560018201915060208501945060208101905061339f565b868310156133e157848901516133dd601f8916826132ea565b8355505b6001600288020188555050505b505050505050565b600081519050919050565b600082825260208201905092915050565b600061341d826133f6565b6134278185613401565b9350613437818560208601612155565b6134408161217f565b840191505092915050565b60006080820190506134606000830187612280565b61346d6020830186612280565b61347a6040830185612369565b818103606083015261348c8184613412565b905095945050505050565b6000815190506134a6816120aa565b92915050565b6000602082840312156134c2576134c1612074565b5b60006134d084828501613497565b91505092915050565b7f4e487b7100000000000000000000000000000000000000000000000000000000600052601260045260246000fdfea2646970667358221220ef3b3e2f6c9bdfecd5aa46a093805542503f873d3ee8e6d1f5d47c560902ef4f64736f6c63430008110033",
    "linkReferences": {},
    "deployedLinkReferences": {}
}